:020000040800F2
:10000000581D0020250200082D0200082F020008BC
:100010003102000833020008350200080000000029
:10002000000000000000000000000000370200088F
:1000300039020008000000003B0200083D020008F1
:100040003F0200083F0200083F0200083F0200088C
:100050003F0200083F0200083F0200083F0200087C
:100060003F0200083F0200083F0200083F0200086C
:100070003F0200083F0200083F0200083F0200085C
:100080003F0200083F0200083F0200083F0200084C
:10009000691300083F0200083F0200083F02000801
:1000A0003F0200083F0200083F0200083F0200082C
:1000B000C51200083F0200083F0200083F02000886
:1000C0003F0200083F0200083F0200083F0200080C
:1000D0003F0200083F0200083F0200083F020008FC
:1000E0003F0200083F0200083F0200083F020008EC
:1000F0003F0200083F0200083F0200083F020008DC
:100100003F0200083F0200083F0200083F020008CB
:100110003F0200083F0200083F0200083F020008BB
:100120003F0200083F0200083F0200083F020008AB
:100130003F0200083F0200083F0200083F0200089B
:1001400000000000000000000000000000000000AF
:100150003F0200083F0200083F0200083F0200087B
:100160003F0200083F0200083F0200083F0200086B
:100170003F0200083F0200083F0200083F0200085B
:100180003F02000800F002F800F03CF80AA090E8F6
:10019000000C82448344AAF10107DA4501D100F042
:1001A00031F8AFF2090EBAE80F0013F0010F18BFD3
:1001B000FB1A43F0010318470C4F00002C4F0000BE
:1001C000103A24BF78C878C1FAD8520724BF30C883
:1001D00030C144BF04680C60704700000023002455
:1001E00000250026103A28BF78C1FBD8520728BF47
:1001F00030C148BF0B6070471FB504F025FF1FBD1D
:1002000010B510BD00F0F1F81146FFF7F5FF02F050
:1002100045FA00F00FF903B4FFF7F2FF03BC00F05A
:1002200017F900000948804709480047FEE7FEE744
:10023000FEE7FEE7FEE7FEE7FEE7FEE7FEE7FEE796
:1002400004480549054A064B70470000E1110008C3
:100250008501000858170020581D0020581900205B
:1002600058190020032A40F2308010F0030C00F0EF
:10027000158011F8013BBCF1020F624498BF11F8E0
:1002800001CB00F8013B38BF11F8013BA2F1040299
:1002900098BF00F801CB38BF00F8013B11F0030311
:1002A00000F04A80083AC0F0088051F8043B083A50
:1002B00051F804CBA0E80810F5E7121D5CBF51F817
:1002C000043B40F8043BAFF30080D20724BF11F891
:1002D000013B11F801CB48BF11F8012B24BF00F8F6
:1002E000013B00F801CB48BF00F8012B70474FF0ED
:1002F00000020429C0F0128010F0030C00F05080BE
:10030000CCF1040CBCF1020F18BF00F8012BA8BF00
:1003100020F8022BA1EB0C0100F042B85FEAC17C8F
:1003200024BF00F8012B00F8012B48BF00F8012B77
:10033000704770477047704710B5203AC0F00B8087
:10034000B1E81850A0E81850B1E81850A0E81850CB
:10035000203ABFF4F5AF5FEA027C24BFB1E8185041
:10036000A0E8185044BF18C918C0BDE810405FEAA3
:10037000827C24BF51F8043B40F8043B08BF70471F
:10038000D20728BF31F8023B48BF11F8012B28BF24
:1003900020F8023B48BF00F8012B70474FF00002E5
:1003A00000B5134694469646203922BFA0E80C506B
:1003B000A0E80C50B1F12001BFF4F7AF090728BF46
:1003C000A0E80C5048BF0CC05DF804EB890028BFC2
:1003D00040F8042B08BF704748BF20F8022B11F0EB
:1003E000804F18BF00F8012B7047754600F02CF8BD
:1003F000AE4605006946534620F00700854618B012
:1004000020B5FFF71DFFBDE820404FF000064FF07C
:1004100000074FF000084FF0000BAC46ACE8C009F5
:10042000ACE8C009ACE8C009ACE8C00921F007019C
:100430008D46704710B50446AFF300802046BDE8F6
:100440001040FFF7E8BE000000487047F8000020A9
:1004500001491820ABBEFEE72600020070470000ED
:1004600080B582B041F20C01C4F202014FF6FF7276
:100470000A600020086041F21001C4F202010A6023
:10048000086041F21C01C4F20201086041F2180147
:10049000C4F20201086041F20402C4F202021168CF
:1004A00021F003011160116821F0F0011160116861
:1004B00021F4E0611160116821F46051116011684C
:1004C00021F440411160116821F0805111601168E0
:1004D00021F0E061116041F20003C4F202031968E7
:1004E00021F480311960196821F40021196019681C
:1004F00021F080711960116821F480311160116858
:1005000021F400311160116821F47011116011683B
:1005100021F0C0411160116821F44001116011689F
:1005200021F000611160116821F00041116041F279
:100530000802C4F20202116821F4803111601168CE
:1005400021F400311160116821F4802111601168DB
:1005500021F400211160116821F4801111601168EB
:1005600021F4000111604EF21001CEF2000108608A
:1005700000F080F8EFF3108072B6019002B080BDF9
:1005800080B584B04FF08040029040F2E731EF2216
:1005900002F09CF902980021019102F0BBF9019947
:1005A000029802F0A5F90199029802F019FA0320C5
:1005B00002F0AAF8019A1C200F2102F08BF8029891
:1005C00001220392114602F0CFF90298039902F03A
:1005D000B3F904B080BD000085B00490039102928D
:1005E0004AF28C20ADF8040003980090FFE70298CF
:1005F000B0B3FFE7049800994A1C0092415CBDF833
:1006000004004840ADF8040000208DF80700FFE723
:100610009DF8070007281FDCFFE7BDF80400C007AE
:1006200068B1FFE7BDF804004008ADF80400BDF86C
:10063000040048F208414840ADF8040005E0BDF868
:1006400004004008ADF80400FFE7FFE79DF807004D
:1006500001308DF80700DBE7029801380290C6E709
:10066000BDF80400C043ADF80400BDF8040005B0B7
:100670007047000080B582B08DF807009DF8071024
:100680004FF4C01001F018FB9DF807100220C0F2D3
:10069000180001F011FB9DF807100320C0F21800AC
:1006A00001F00AFB9DF807100420C0F2180001F0C9
:1006B00003FB9DF807100520C0F2180001F0FCFABA
:1006C0009DF807100B20C0F2180001F0F5FA9DF814
:1006D00007104FF4E01001F0EFFA9DF8071040F218
:1006E0000230C3F2100001F08DFF9DF807101620B4
:1006F000C0F2180001F0E0FA9DF807101720C0F2D0
:100700001C0001F0D9FA02B080BD000082B0019057
:100710000198C00AADF80200BDF80400400530B1F0
:10072000FFE7BDF802000130ADF80200FFE7BDF8B9
:10073000020002B07047000040F2E821C2F200015E
:1007400008680130086040F27810C2F200000078BA
:10075000012808D0FFE740F27810C2F200000078CC
:10076000022812D1FFE740F2E822C2F2000210682C
:10077000411C11600B2807D3FFE740F27811C2F249
:10078000000100200870FFE71CE040F27810C2F280
:1007900000000078032814D1FFE740F2E822C2F2FB
:1007A00000021068411C116041F29511884207D384
:1007B000FFE740F27811C2F2000100200870FFE765
:1007C000FFE7FFE77047000081B08DF803009DF858
:1007D00003000022C0F608024FF4C83100FB0120DC
:1007E00040F25811C2F200010860086848F2FF7236
:1007F000C0F201021044486048680130886088688F
:1008000000F2FF70C86001B07047000080B584B08E
:10081000029003208DF8070001F032FE4FF0804077
:1008200001F006FD8DF80700142001F08BFC9DF807
:100830000700042806D1FFE701F0B4FC01208DF881
:100840000F0015E0029801F021FD8DF807009DF8DA
:100850000700032806D0FFE701F0A4FC01208DF873
:100860000F0005E001F09EFC00208DF80F00FFE76F
:100870009DF80F0004B080BD84B0039002910192F6
:100880000020ADF80200FFE7BDF8020001998842A0
:100890000DD2FFE70398BDF80220805C02998854CE
:1008A000FFE7BDF802000130ADF80200ECE704B04C
:1008B0007047000080B586B004900391029201F069
:1008C000DFFD00200190FFE70198029988421AD2CB
:1008D000FFE73420C1F2000001F034FC0498019AD3
:1008E00010440399895C01F0D5FB032806D0FFE78B
:1008F00001F058FC01208DF817000AE0FFE701988D
:1009000001300190E0E701F04DFC00208DF8170068
:10091000FFE79DF8170006B080BD000080B500F02D
:1009200035FB80BD80B584B002900298016840F22A
:10093000E420C2F20000016000680021C2F6FE71EE
:10094000084001900198B0F1005F16D1FFE70298CE
:10095000416840F27010C2F200000160016840F28C
:100960007410C2F2000001600299096803910399B2
:1009700081F3088800688047FFE7012004B080BD4C
:1009800080B582B0FFE700F0FFF88DF807009DF812
:10099000070070B9FFE700F00DF845F60000C0F65B
:1009A0000200FFF7BFFF012802D1FFE7FFE7FEE7E4
:1009B000FFE7E8E780B5FFF753FD80BD80B584B061
:1009C0004CF20000C0F60000006801904CF20400F8
:1009D000C0F6000000680390019840F22311C6F2AF
:1009E0008971884218D0FFE7039841F23421C5F29B
:1009F0007861884206D1FFE745F60000C0F60200A4
:100A0000029005E04CF60000C0F600000290FFE7FF
:100A10000298FFF787FFFFE704B080BD80B584B080
:100A2000039002918DF807208DF806300398007826
:100A300001460091032800F2A3800099DFE801F04D
:100A40000215379F9DF80700AC280DD1FFE70298EB
:100A500040F21221FFF74BFC9DF807000299087045
:100A6000039901200870FFE78BE09DF807006D28CF
:100A70000AD1FFE79DF80700029948700399022008
:100A800088600399087011E09DF80700AC2808D130
:100A9000FFE79DF80700029908700399012008708C
:100AA00003E0039900200870FFE7FFE769E09DF885
:100AB00007000299DDF80CC0DCF80820531CCCF8C4
:100AC000083088540398806804280DD1FFE7029904
:100AD0008878C97881F0FF01884204D0FFE7039944
:100AE00000200870FFE749E003988068062816D1C7
:100AF000FFE70298808808300399486003984068AF
:100B0000082807D3FFE70398406840F21321884282
:100B100004D3FFE7039900200870FFE72DE0039856
:100B20008068072828D3FFE70398416880688842D7
:100B300022D1FFE7029903988068014411F8020C62
:100B400011F8011C40EA0120ADF804000298039955
:100B50004968A1F108020621FFF73EFDBDF8041027
:100B6000884204D1FFE703990320087003E003994A
:100B700000200870FFE7FFE7FFE7FFE701E000E084
:100B8000FFE704B080BD000080B582B041F238704C
:100B9000C2F2000000F042FDF8B9FFE740F2E821A0
:100BA000C2F200010020086041F23870C2F2000079
:100BB0000DF1070100F0E4FD70B1FFE79DF807209B
:100BC00040F27810C2F2000041F2F421C2F20001BA
:100BD0000123FFF723FFFFE7FFE700F007F88DF899
:100BE00006009DF8060002B080BD000080B58AB006
:100BF00040F27810C2F200000078032840F0BD8176
:100C0000FFE741F2F420C2F2000081798DF826104E
:100C1000C079122820D1FFE700208DF8250041F28D
:100C2000F420C2F2000080680690069840F2581145
:100C3000C2F20001096888420DD3FFE7069840F22E
:100C40005811C2F200014968884204D2FFE701202E
:100C50008DF82500FFE7FFE79DF8260020380146C4
:100C60000391052800F276810399DFE811F0060070
:100C70003101A00042011000E80041F2F420C2F26C
:100C800000000021C171062100F09AF963E1BDF86E
:100C90001800400520B1FFE700208DF82500FFE790
:100CA0009DF82500002873D0FFE741F2F420C2F23E
:100CB0000000C06804900498FFF728FDADF81E00FE
:100CC00040F25810C2F200008068FFF79FFD8DF8D7
:100CD00023009DF8230038B1FFE741F2F421C2F26E
:100CE00000010120C87136E1049840F26811C2F297
:100CF0000001086040F25810C2F20000806808222B
:100D0000FFF7D8FD8DF823009DF8230038B1FFE7E9
:100D100041F2F421C2F200010120C8711BE1002060
:100D20008DF82400FFE79DF82400BDF81E108842CE
:100D30001BDAFFE706989DF8241000EBC120FFF7AF
:100D400065FD8DF823009DF8230038B1FFE741F2DF
:100D5000F421C2F200010120C87106E0FFE79DF80E
:100D6000240001308DF82400DDE79DF8230038B918
:100D7000FFE741F2F421C2F200010020C87106E051
:100D800041F2F421C2F200010320C871FFE706E03E
:100D900041F2F421C2F200010420C871FFE741F2E0
:100DA000F420C2F20000062100F00AF9D3E09DF819
:100DB0002500A8B3FFE741F2F421C2F2000108794F
:100DC000497940EA01200638ADF82000BDF820003E
:100DD000B0F5007F05DDFFE74FF40070ADF82000AF
:100DE000FFE70698BDF8202041F2F421C2F200018D
:100DF0000C31FFF75FFD8DF823009DF8230038B11B
:100E0000FFE741F2F421C2F200010120C87106E0BF
:100E100041F2F421C2F200010020C871FFE706E0B0
:100E200041F2F421C2F200010420C871FFE741F24F
:100E3000F420C2F20000062100F0C2F88BE09DF819
:100E40002500B0B3FFE741F2F420C2F20000C06811
:100E5000059005980699084440F25811C2F2000125
:100E60004968884207D9FFE741F2F421C2F2000144
:100E70000520C8711CE00698059A00210291FFF731
:100E8000ABFB01460298ADF81C10BDF81C1040F2F7
:100E90006812C2F2000291809DF81C2041F2F421F8
:100EA000C2F200010A739DF81D204A73C871FFE762
:100EB00006E041F2F421C2F200010420C871FFE70C
:100EC00041F2F420C2F20000082100F079F842E07B
:100ED00041F2F420C2F2000000210191C17106210B
:100EE00000F06EF8142000F0FDFF01988DF8270047
:100EF00047E09DF8250010B3FFE741F2F420C2F26D
:100F00000000C06804900498B0F5007F04D9FFE7A2
:100F10004FF400700490FFE70698049A41F2F42120
:100F2000C2F2000100910C31FFF7A6FC00980021ED
:100F3000C1710499063189B200F042F809E041F22A
:100F4000F420C2F200000421C171062100F038F83B
:100F5000FFE700E0FFE740F27811C2F20001002055
:100F6000087041F2F420C2F20000C07920B1FFE71E
:100F700001208DF8270004E0FFE70B208DF8270003
:100F8000FFE79DF827000AB080BD000080B541F260
:100F9000F420C2F2000040F21221FFF7A8F940F25B
:100FA0007811C2F200010020886048600860087073
:100FB00040F2E821C2F200010860FFF705FC80BDA5
:100FC00080B582B00190ADF80210BDF80200019921
:100FD00008719DF803000199487101980630BDF829
:100FE00002200021FFF7F8FAADF80000BDF800007C
:100FF000019ABDF80210114488719DF80100019A10
:10100000BDF802101144C8710199BDF80200083002
:1010100082B241F20C50C2F2000002F059FA02B062
:1010200080BD000088B0079006910592079800F0F7
:10103000070004900498C0F10700052803D3FFE7D8
:101040000420019004E00498C0F107000190FFE73C
:101050000198039004980430062803D8FFE7002085
:10106000009003E0049803380090FFE70098029096
:1010700006980399012202FA01F101390840029B06
:10108000984005999A40013A1140084308B07047CA
:1010900080B582B0FFE741F20850C2F2000000784C
:1010A00008B9FFE7F7E741F20851C2F2000100205A
:1010B000087040F28411C2F200010860FFE741F2BB
:1010C0000850C2F20000007848B9FFE700BF40F2C4
:1010D0008411C2F20001086801300860EFE741F2B4
:1010E0000851C2F200010020087040F28410C2F2E0
:1010F000000001900068400003F095FE41EC100BE9
:101100009FED091B53EC112B51EC100B03F09EFECD
:1011100041EC100B51EC100B03F058FE01990860E4
:1011200002B080BD00BF00BF666666666666EE3FC1
:1011300080B582B000F048FE0420012100F0EAFCF6
:10114000FFE70120C0F2240000F038FD012801D0A3
:10115000FFE7F6E70121084600F0DCFCFFE700F0BE
:101160004DFD28B9FFE70020012100F0D3FCF6E790
:10117000FFE7012000F022FD012801D0FFE7F8E79A
:101180001D2101220192104600F0C0FD01990220AC
:1011900000F0C0FCFFE7192000F010FD012801D08D
:1011A000FFE7F8E7002000F05DFC0420009000F06D
:1011B00081FC009800F06AFC012000F08FFC022006
:1011C00000F046FEFFE700F067FE022801D0FFE7CF
:1011D000F9E7002000F082FC01F0A0FA02B080BD27
:1011E0004EF68851CEF20001086840F470000860A5
:1011F00041F20001C4F20201086840F001000860F9
:10120000FFE741F20000C4F2020000684008C00796
:1012100008B9FFE7F5E741F20401C4F202010868EA
:1012200020F003000860FFE741F20400C4F202006E
:1012300000688008800708B1FFE7F5E741F2000188
:10124000C4F2020108684FF6FF72CFF6F262104056
:10125000086041F20401C4F202010020086041F27A
:101260003001C4F20201086041F20801C4F2020137
:101270004FF41F0008604EF60851CEF200014FF007
:10128000006008607047000080B541F20851C2F26A
:1012900000010020087041F20751C2F200010870FD
:1012A00041F20651C2F20001087040F2F021C2F290
:1012B0000001086040F2EC21C2F200010860FFF773
:1012C0005FF980BD80B582B04FF08040012101F010
:1012D00069FB002845D0FFE74FF0804001210191D4
:1012E00001F038FB019841F20851C2F20001087088
:1012F00040F2EC21C2F2000108680130086001F000
:10130000DFFA41F20750C2F20000017801310170AA
:101310000078642824DBFFE741F20751C2F20001A4
:101320000020087001F0CAFA41F20650C2F2000033
:1013300001780131017000780A2810DBFFE741F2E3
:101340000651C2F200010020087040F2F021C2F202
:10135000000108680130086001F0B6FAFFE7FFE716
:10136000FFE702B080BD000080B541F20C50C2F230
:10137000000003F081FA00F053F880BD80B584B01E
:1013800041F23870C2F2000040F2F421C2F20001D2
:101390004FF4805200F04EF90120019000F084FDDE
:1013A00001991620C0F2180000F086FC41F62C705E
:1013B00000F0EEF84FF4FA5000F0F6F841F65470F1
:1013C00000F0FEF80199022000F0BAF80199172008
:1013D000C0F21C0000F070FC032001F095F914200D
:1013E00000220292114601F075F9029869460860E0
:1013F00041F20C50C2F20000039040F20002C2F22F
:10140000000240F22803C2F2000345F60041C4F294
:10141000000102F0EDF9039802F050F904B080BD2C
:1014200080B584B00020ADF80E0041F20C50C2F23D
:101430000000029002984068406A0190019890F87C
:101440005300D8B1FFE70199002081F853000198BB
:10145000B0F85000ADF80E000198011DBDF80E2047
:1014600041F23870C2F2000000F014F902980199BC
:101470000A1D0121402302F0BBFDFFE704B080BD3F
:1014800081B08DF803009DF9030000280ED4FFE71A
:101490009DF9031001F01F02012090404A094EF20D
:1014A0000011CEF2000141F82200FFE701B07047C1
:1014B0004EF60C50CEF200000068C0F302207047D8
:1014C00082B08DF8070000919DF9070000280AD42A
:1014D000FFE7009800019DF907104EF20042CEF29E
:1014E000000288540BE0009800019DF8071001F0FD
:1014F0000F014EF61452CEF200028854FFE702B0FC
:101500007047000083B00290029800F0070000903E
:101510004EF60C51CEF200010868019001984FF68A
:10152000FF02104001900198009A40EA0220002238
:10153000C0F2FA52104301900198086003B070475E
:1015400081B0ADF802008DF80110BDF8020048B975
:10155000FFE745F60401C4F20101086820F002002B
:10156000086008E045F60401C4F20101086840F093
:1015700002000860FFE79DF8012045F60401C4F26F
:101580000101086862F30000086001B070470000C4
:1015900081B0ADF80200BDF8020045F60C01C4F2BE
:1015A0000101086001B0704781B0ADF80200BDF8DC
:1015B000020045F61001C4F20101086001B0704755
:1015C00081B0ADF80200BDF8020045F61401C4F286
:1015D0000101086001B0704781B0009000990120BE
:1015E00081F852000099002081F8530000990860AA
:1015F00040F2E401C2F200010A68009B5A658A7950
:10160000009B83F85A200A79009B83F85820497977
:10161000009A82F8591001B07047000081B0009024
:10162000009908684968401AB0FA80F0400901B092
:101630007047000084B0029001910092029820B996
:10164000FFE74FF0FF30039021E0019820B9FFE75A
:101650004FF0FF3003901AE00098022805D3FFE70F
:101660000098411E084204D0FFE74FF0FF3003907E
:101670000DE0029900200860029948600099013944
:10168000029A91600199029AD1600390FFE7039852
:1016900004B0704780B588B007900691059207980E
:1016A000026841688068891A0844013004900598EE
:1016B0000499884214D9FFE7059807998968013190
:1016C000884205D9FFE70798806801300590FFE759
:1016D00005980499421A0799486810444860FFE742
:1016E00007990868896808400390079880680399FB
:1016F000401A0130029002980599884203D9FFE709
:101700000598019002E002980190FFE7019802908D
:101710000798C068039908440699029AFEF7A2FD4B
:101720000798C0680699029B1944059AD21AFEF7D9
:1017300099FD059A0799086810440860059808B053
:1017400080BD000080B584B0029001910298FFF73F
:1017500065FF20B1FFE700208DF80F000BE0029835
:1017600041688268C0681140405C0199087001209E
:101770008DF80F00FFE79DF80F0004B080BD00005A
:1017800080B584B00390029103980299FFF7DAFFC5
:101790008DF807009DF8070000F0010203994868E2
:1017A000104448609DF8070000F0010004B080BDBF
:1017B00080B584B0039000208DF80B000398019051
:1017C0000198822102F000FB0198812102F0FCFACD
:1017D0000198012102F0F8FA9DF80B0004B080BDD9
:1017E00080B586B0059000218DF813100598039000
:1017F00003984068406A0290039802F097FF0190B6
:10180000029890F84C0020280AD1FFE70598029A28
:1018100092F84C104432BDF8043001F007FEFFE7A7
:101820009DF8130006B080BD82B0019000208DF8B5
:1018300003009DF8030002B07047000083B00290DF
:101840008DF8071000208DF806009DF8070001466E
:101850000091012808D0FFE70098022805D0FFE793
:101860000098032802D002E002E001E000E0FFE778
:101870009DF8060003B0704785B004908DF80F10F6
:101880000498029002984068406A019000208DF808
:1018900003000199012081F852009DF8030005B072
:1018A0007047000080B58AB0099000208DF82300B1
:1018B0000998079007984068406A06900798822127
:1018C00001914FF4A07202F043FA0798812102912E
:1018D000C02202F03DFA0798012104914FF4807272
:1018E00002F036FA019907980322082302F042FB1E
:1018F00002990798022203924023059302F03AFBD3
:10190000039A0499059B079802F034FB0499059B00
:101910000798069A043202F06BFB0698FFF75CFE0C
:101920009DF823000AB080BD80B584B003908DF887
:101930000B1000208DF80A00039801900198406870
:10194000406A009001989DF80B1002F0EFFE00999C
:10195000A1F850000099012081F853009DF80A0079
:1019600004B080BD80B588B00790069100208DF846
:1019700017000798049004984068406A03900698FE
:10198000007800F060000146029198B3FFE70298EA
:10199000202855D1FFE70698C08850B3FFE7069886
:1019A00000780006002810D5FFE70798069B5978B5
:1019B000039A4432DB8801F039FD049803994431DD
:1019C000069AD28802F004F812E00698407803994B
:1019D00081F84C000698C0880399A1F84E0004983D
:1019E000039A02F14401B2F84E2001F0C1FFFFE773
:1019F000FFE729E0069840780138014601910A285E
:101A000019D80199DFE801F01517161717061717EF
:101A1000170A1000049802F009F810E004980399DE
:101A2000012201F0D5FF0AE006984088039908607A
:101A300005E004E003E0049801F0F8FFFFE703E0AD
:101A4000049801F0F3FFFFE79DF8170008B080BD90
:101A500082B0019000208DF803009DF8030002B0D1
:101A60007047000081B08DF803009DF8032041F21B
:101A70000401C4F20201086802F00F0220F0F00035
:101A800040EA0210086001B07047000081B08DF894
:101A900003009DF8032041F20401C4F2020108682A
:101AA00002F0070220F4E06040EA0220086001B082
:101AB0007047000081B08DF803009DF8032041F2CB
:101AC0000401C4F20201086802F0070220F4605029
:101AD00040EAC220086001B07047000081B08DF874
:101AE00003009DF80300012809D1FFE741F25401EA
:101AF000C4F20201086840F03000086008E041F2DA
:101B00005401C4F20201086820F030000860FFE7C9
:101B100001B0704782B08DF807008DF806109DF86F
:101B2000070001460091042844D80099DFE801F03D
:101B3000030E1D2C37009DF8062041F20001C4F26F
:101B40000201086862F30000086034E09DF8062096
:101B500041F20001C4F20201086802F0010220F41F
:101B6000803040EA0240086025E09DF8062041F2FE
:101B70000001C4F20201086802F0010220F0807046
:101B800040EA0260086016E09DF8062041F220015C
:101B9000C4F20201086862F3000008600BE09DF8DF
:101BA000062041F22401C4F20201086862F3000039
:101BB000086000E0FFE702B07047000082B00190CB
:101BC00000208DF80300BDF8060041F20001C4F2C8
:101BD00002014058019901F01F01C840C00720B917
:101BE000FFE700208DF8030003E001208DF80300DB
:101BF000FFE79DF8030002B07047000080B584B095
:101C0000002003908DF80B00FFE71120FFF7D6FFAF
:101C1000014600200129019008D0FFE70399002028
:101C2000B1F5405F38BF01200190FFE70198C00780
:101C300020B1FFE7039801300390E6E71120FFF79A
:101C4000BDFF012804D0FFE700208DF80B0003E062
:101C500001208DF80B00FFE79DF80B0004B080BD5C
:101C600081B08DF803009DF8032041F23001C4F2E9
:101C70000201086802F0010220F0007040EA4260B0
:101C8000086001B07047000080B582B08DF8070091
:101C90000120FFF7E5FF9DF8072041F25401C4F24F
:101CA0000201086802F0010220F4007040EA4220BC
:101CB000086002B080BD000082B001908DF8031072
:101CC0009DF8030001280FD1FFE7019800F01F02E3
:101CD000012101FA02F3010C41F20002C4F20202F6
:101CE0008858184388500EE0019800F01F02012127
:101CF00001FA02F3010C41F20002C4F20202885818
:101D000098438850FFE702B07047000081B08DF81B
:101D100003008DF802108DF801209DF8030088B9AA
:101D2000FFE741F20401C4F20201086820F48030A8
:101D3000086041F23001C4F20201086840F000700E
:101D400008601FE041F20401C4F20201086840F497
:101D5000803008609DF80300012809D1FFE741F2B7
:101D60000401C4F20201086820F40030086008E0B1
:101D700041F20401C4F20201086840F40030086036
:101D8000FFE7FFE79DF8020000F00F0241F20401B7
:101D9000C4F20201086820F4701040EA8240086032
:101DA0009DF8020000F03002086820F0C04040EAD0
:101DB000426008609DF80120086820F0004040EA79
:101DC000C270086001B0704741F20001C4F2020124
:101DD000086840F001000860FFE741F20000C4F22B
:101DE000020000684008C00708B9FFE7F5E741F2C4
:101DF0000401C4F20201086820F003000860FFE754
:101E000041F20400C4F2020000688008800708B1B3
:101E1000FFE7F5E741F20001C4F2020108684FF65E
:101E2000FF72CFF6F2621040086041F20401C4F282
:101E300002010020086041F23001C4F20201086092
:101E400041F20801C4F202014FF41F00086070471C
:101E500081B08DF803009DF8032041F20401C4F223
:101E60000201086862F30100086000BF00BF00BF04
:101E700000BF00BF00BF00BF00BF00BF00BF00BF6A
:101E800000BF00BF00BF00BF00BF00BF00BF00BF5A
:101E900000BF01B07047000041F20400C4F202002C
:101EA0000068C0F38100704780B582B08DF80700EC
:101EB0009DF80700012804D1FFE70120FFF7E4FEA9
:101EC000FFE79DF8072041F25401C4F202010868BF
:101ED00002F0010220F4807040EA0220086002B0A3
:101EE00080BD000082B00190019840F28411C2F2DE
:101EF0000001096848430090FFE70098411E0091E7
:101F000010B1FFE700BFF8E702B0704781B00320CF
:101F10008DF8030042F20C00C4F202000068C00712
:101F200020B1FFE700208DF803001FE042F20C0013
:101F3000C4F2020000688008C00720B1FFE701205A
:101F40008DF8030011E042F20C00C4F202000068B8
:101F50000009C00720B1FFE702208DF8030003E06D
:101F600003208DF80300FFE7FFE7FFE79DF803007C
:101F700001B0704780B584B0039003208DF80B004A
:101F8000FFF7C4FF8DF80B00FFE79DF80B10002052
:101F9000019031B9FFE70398002818BF0120019094
:101FA000FFE70198C00740B1FFE7FFF7AFFF8DF8EB
:101FB0000B00039801380390E7E7039820B9FFE787
:101FC00004208DF80B00FFE79DF80B0004B080BDE6
:101FD00081B003208DF8030042F24C00C4F20200ED
:101FE0000068C00720B1FFE700208DF803001FE064
:101FF00042F24C00C4F2020000688008C00720B121
:10200000FFE701208DF8030011E042F24C00C4F21A
:10201000020000680009C00720B1FFE702208DF828
:10202000030003E003208DF80300FFE7FFE7FFE76D
:102030009DF8030001B0704780B584B00390032081
:102040008DF80B00FFF7C4FF8DF80B00FFE79DF83C
:102050000B100020019031B9FFE70398002818BF4A
:1020600001200190FFE70198C00740B1FFE7FFF7AB
:10207000AFFF8DF80B00039801380390E7E7039852
:1020800020B9FFE704208DF80B00FFE79DF80B0057
:1020900004B080BD80B584B003908DF80B10032090
:1020A0008DF80A000398B0F1006F21D3FFE7039881
:1020B0004FF6FF71C0F60701884219D8FFE742F2D8
:1020C0001001C4F202010191086840F001000860AB
:1020D0009DF80B00039908704FF48010FFF74AFF3A
:1020E00001998DF80A00086820F00100086025E0D9
:1020F00003980021C0F6080188421ED3FFE7039829
:10210000000D802819D8FFE742F25001C4F2020105
:102110000091086840F0010008609DF80B000399E9
:1021200008704FF48010FFF787FF00998DF80A00C0
:10213000086820F001000860FFE7FFE79DF80A004B
:1021400004B080BD83B00290029800F0E04001909E
:10215000029820F0E04002900198009050B1FFE713
:102160000098B0F1805F0CD0FFE70098B0F1005FFD
:102170000ED014E0029842F20C01C4F20201086091
:102180000EE0029842F24C01C4F20201086007E03E
:10219000029842F28C01C4F20201086000E0FFE7FD
:1021A00003B0704742F21001C4F20201086840F027
:1021B0008000086042F25001C4F20201086840F059
:1021C000800008607047000081B003208DF8030094
:1021D00042F20C00C4F202000068C00720B1FFE721
:1021E00000208DF803001FE042F20C00C4F2020050
:1021F00000688008C00720B1FFE701208DF80300C8
:1022000011E042F20C00C4F2020000680009C007AD
:1022100020B1FFE702208DF8030003E003208DF8D2
:102220000300FFE7FFE7FFE79DF8030001B07047F9
:1022300080B584B0039003208DF80B00FFF7C4FF36
:102240008DF80B00FFE79DF80B100020019031B9CD
:10225000FFE70398002818BF01200190FFE70198CD
:10226000C00740B1FFE7FFF7AFFF8DF80B00039801
:1022700001380390E7E7039820B9FFE704208DF8C1
:102280000B00FFE79DF80B0004B080BD80B586B061
:10229000059003208DF813000598B0F1006F27D347
:1022A000FFE705984FF6FF71C0F6070188421FD877
:1022B000FFE742F21001C4F202010391086840F006
:1022C00002000860059842F21402C4F20202106093
:1022D000086840F0400008604FF08040FFF74AFE79
:1022E00003998DF81300086820F00200086052E09E
:1022F00005980021C0F60801884224D3FFE705981D
:10230000000D80281FD8FFE742F25001C4F20201FD
:102310000291086840F002000860059842F25402F9
:10232000C4F202021060086840F0400008604FF0FC
:102330008040FFF781FE02998DF81300086820F0B5
:102340000200086026E00598B0F1046F21D3FFE792
:1023500042F29001C4F202010191086840F00200CB
:102360000860059842F29402C4F202021060086804
:1023700040F0400008604FF0FF3000F053F8019942
:102380008DF81300086820F00200086000F008F8DB
:10239000FFE7FFE7FFE79DF8130006B080BD0000F0
:1023A0004FF00460006841F20000C0F64000006891
:1023B00042F20000C0F640000068704781B0032080
:1023C0008DF8030042F28C00C4F202000068C007DE
:1023D00020B1FFE700208DF803001FE042F28C00DF
:1023E000C4F2020000688008C00720B1FFE70120A6
:1023F0008DF8030011E042F28C00C4F20200006884
:102400000009C00720B1FFE702208DF8030003E0B8
:1024100003208DF80300FFE7FFE7FFE79DF80300C7
:1024200001B0704780B584B0039003208DF80B0095
:10243000FFF7C4FF8DF80B00FFE79DF80B1000209D
:10244000019031B9FFE70398002818BF01200190DF
:10245000FFE70198C00740B1FFE7FFF7AFFF8DF836
:102460000B00039801380390E7E7039820B9FFE7D2
:1024700004208DF80B00FFE79DF80B0004B080BD31
:1024800042F20401C4F2020140F22312C4F2675284
:102490000A6048F6AB10CCF6EF50086042F24401F7
:1024A000C4F202010A6008607047000080B582B083
:1024B00045F29400C0F6000040F2E411C2F20001BF
:1024C000019102F02DFC0199024641F24C70C2F2DA
:1024D00000000280416002B080BD000040F2500068
:1024E000C2F200007047000040F25800C2F2000043
:1024F0007047000080B582B045F27A00C0F6000057
:1025000040F2E411C2F20001019102F009FC0199CC
:10251000024641F24C70C2F200000280416002B0FB
:1025200080BD000040F2DC00C2F2000070470000F5
:1025300080B582B045F2AB00C0F6000040F2E41175
:10254000C2F20001019102F0EBFB0199024641F257
:102550004C70C2F200000280416002B080BD0000F9
:102560000020704780B582B045F26200C0F60000DE
:1025700040F2E411C2F20001019102F0D1FB019995
:10258000024641F24C70C2F200000280416002B08B
:1025900080BD00000020704780B500F005F840F2D3
:1025A000EC00C2F2000080BD80B584B04FF2E8704C
:1025B000C1F6FF70006803904FF2EC70C1F6FF7037
:1025C000006802904FF2F070C1F6FF700068019051
:1025D0000199039808440390039888B1FFE7039892
:1025E00040F26401C2F2000100910231082202F0BF
:1025F000D9F8009902981231042202F0D3F8FFE7CB
:1026000004B080BD85B004908DF80F109DF81300C4
:102610000021C4F2010108430290BDF812008DF8B8
:1026200003000498000A8DF8020004988DF8010058
:102630009DF802009DF803100844C0F120014FF0FE
:10264000FF308840019001989DF802109DF803200A
:102650001144C1F12001C840019001989DF8031078
:10266000C840019001989DF8031088400190019A9C
:1026700002990868904308609DF80F0058B1FFE781
:102680009DF801009DF8031000FA01F20299086814
:1026900010430860FFE705B07047000080B582B0C6
:1026A000FEF78CF9EFF3108072B60190FEF740FD53
:1026B0000120FDF7DFFFFEF7E7FDFEF75FFE62B6E4
:1026C000FEF7E6FCFEF72AF9FEF75AF9002002B001
:1026D00080BD000080B584B08DF80F00029101929A
:1026E00000200090FEF7E4FE0299019AFEF79AFCA2
:1026F00000909DF90F000099FEF7E2FE9DF90F0092
:10270000FEF7BEFE04B080BD80B582B08DF8070034
:102710009DF80700FEF7F6FE02B080BD80B588B0D8
:102720000020079006900590049003900290FFF718
:10273000B3FB8DF807009DF807000146009140B1FA
:10274000FFE7009801282BD0FFE70098022831D03E
:1027500090E041F25400C4F202000068400AC00751
:1027600098B1FFE741F23000C4F202000068400E69
:10277000C00750B1FFE740F2F401C2F2000146F693
:102780000040C0F2DC20086009E040F2F401C2F22F
:10279000000141F20020C0F27A000860FFE773E018
:1027A00040F2F401C2F2000141F20020C0F27A00CE
:1027B000086069E041F20400C4F202000168C1F35C
:1027C000004104910168C1F3834106910068C0F3A0
:1027D00041700590059820B9FFE706980F2807D1AA
:1027E000FFE70599069800EB01100130069003E021
:1027F000069802300690FFE7049860B9FFE7069854
:1028000040F60011C0F23D01484340F2F401C2F22B
:10281000000108602DE041F20400C4F202000068EB
:10282000400CC007C0B1FFE741F25400C4F20200FF
:102830000068C0F3013007900798811C41F2002026
:10284000C0F27A00B0FBF1F00699484340F2F4017F
:10285000C2F2000108600BE0069841F20021C0F2CC
:102860007A01484340F2F401C2F200010860FFE738
:10287000FFE709E040F2F401C2F2000141F200205A
:10288000C0F27A000860FFE741F20400C4F20200DF
:102890000068C0F303100390039945F2B200C0F63C
:1028A0000000405C029040F2F401C2F200010868AE
:1028B000029AD040086008B080BD00007047000058
:1028C00080B5FDF739FF80BD7047000083B00290EE
:1028D0000191009201980299C86200980299886259
:1028E0000299486940F00100486103B07047000058
:1028F00082B001908DF803109DF8032001990868BB
:1029000002F0030220F4407040EA0220086002B0A6
:102910007047000082B001908DF803109DF80320ED
:102920000199086802F0070220F0700040EA0210E6
:10293000086002B07047000082B001908DF803106B
:102940009DF803200199086862F30000086002B056
:102950007047000082B0019000910098C043019937
:10296000086102B07047000083B0029001918DF8B9
:1029700003209DF80300012806D1FFE7019A029980
:10298000C8681043C8600AE09DF8030030B9FFE74B
:10299000019A0299C8689043C860FFE7FFE703B057
:1029A0007047000083B00290019100208DF8030071
:1029B00002980069019908420AD0FFE70298C068AE
:1029C0000199084204D0FFE701208DF8030003E0DD
:1029D00000208DF80300FFE79DF8030003B0704767
:1029E00082B001908DF803109DF803200199086BC7
:1029F00020F0FF001044086302B0704740F27E01EF
:102A0000C2F20001402008807047000081B00090B1
:102A10000099086C20F0020008640099086E20F00C
:102A20000200086601B0704780B582B0019001993C
:102A3000086C20F0010008640199002048640199A5
:102A4000086501998020C86401984FF41E41012255
:102A500000F08CFC02B080BD81B000900099086C41
:102A600040F0080008640099086C40F00400086415
:102A700001B0704785B0049003910398807A0028D4
:102A800072D1FFE703988078012836D1FFE70398D9
:102A9000017845F60040C4F2000050F8210080099A
:102AA000C00798B1FFE70398007845F60041C4F2EB
:102AB000000151F8200048F2C002104348F6CF72DE
:102AC0001040039A127841F82200FFE7039800783B
:102AD00045F60041C4F2000151F8200048F6BF72EB
:102AE0001040ADF80A00BDF80A0048F28002104319
:102AF000039A127841F8220035E00398017845F6F0
:102B00000040C4F2000050F82100800BC00798B1CB
:102B1000FFE70398007845F60041C4F2000151F840
:102B200020004CF2800210434CF68F721040039A42
:102B3000127841F82200FFE70398007845F600413B
:102B4000C4F2000151F820004BF68F721040ADF82E
:102B50000800BDF8080048F280021043039A12787A
:102B600041F82200FFE7ADE00398017845F6004008
:102B7000C4F2000050F821008009C00798B1FFE7B7
:102B80000398007845F60041C4F2000151F8200096
:102B900048F2C002104348F6CF721040039A1278F0
:102BA00041F82200FFE70398017845F60040C4F29F
:102BB000000050F82100800BC00798B1FFE7039890
:102BC000007845F60041C4F2000151F820004CF2B3
:102BD000800210434CF68F721040039A127841F82D
:102BE0002200FFE703988078012835D1FFE703989A
:102BF000007845F60041C4F2000151F8200048F287
:102C0000C002104348F6CF721040039A127841F880
:102C100022000398007851F8200048F6BF72104057
:102C2000ADF80600BDF8060048F280021043039B91
:102C30001B7841F823000398007851F820004BF6E8
:102C40008F731840ADF80400BDF804001043039AD8
:102C5000127841F8220034E00398007845F60041EC
:102C6000C4F2000151F820004CF2800210434CF6EF
:102C70008F721040039A127841F82200039800786E
:102C800051F8200048F6BF721040ADF80200BDF8C0
:102C9000020048F280021043039B1B7841F8230096
:102CA0000398007851F820004BF68F731840ADF868
:102CB0000000BDF800001043039A127841F822008A
:102CC000FFE7FFE705B0704780B58BB00A90099128
:102CD0000020ADF822000998007845F60041C4F2C2
:102CE000000151F8200048F680721040099B1A78C4
:102CF0005B78184341F822000998C07828B9FFE7AB
:102D00004FF40070ADF8220022E00998C078022844
:102D100004D1FFE70020ADF8220018E00998C07840
:102D2000032805D1FFE74FF4C060ADF822000DE0A5
:102D30000998C078012808D1FFE74FF48060ADF80A
:102D40002200099901208872FFE7FFE7FFE7FFE70C
:102D50000998007845F60041C4F2000151F82000BE
:102D600048F68F121040BDF822201043099A1278BD
:102D700041F8220009988078012840F0FE80FFE7A2
:102D80000998807A00284ED1FFE70998808845F697
:102D90005041C4F200010968099A127801EBC2029D
:102DA00040F28001C2F20001096841F8120009985E
:102DB000017845F60040C4F2000050F82100800977
:102DC000C00798B1FFE70998007845F60041C4F2C2
:102DD000000151F8200048F2C002104348F6CF72BB
:102DE0001040099A127841F82200FFE7099800780C
:102DF00045F60041C4F2000151F8200048F6BF72C8
:102E00001040ADF82000BDF8200080F02000ADF8A3
:102E10002000BDF8200048F280021043099A127881
:102E200041F82200A8E00998017845F60040C4F274
:102E3000000050F8211048F28012114348F68F72BA
:102E40001140099A127840F822100999898845F6AC
:102E50005043C4F200031A68DDF824C09CF800C097
:102E600002EBCC0E40F28002C2F20002D2F800C0A7
:102E70004CF81E100999C9881B68DDF824C09CF81D
:102E800000C003EBCC03126802EB43029160099986
:102E9000097850F821008009C00798B1FFE7099828
:102EA000007845F60041C4F2000151F8200048F2D4
:102EB000C002104348F6CF721040099A127841F8C8
:102EC0002200FFE70998017845F60040C4F20000AF
:102ED00050F82100800BC00798B1FFE709980078EF
:102EE00045F60041C4F2000151F820004CF2800286
:102EF00010434CF68F721040099A127841F8220064
:102F0000FFE70998007845F60041C4F2000151F846
:102F100020004CF2800210434CF68F721040099A48
:102F2000127841F822000998007851F820004BF6F9
:102F30008F721040ADF81E00BDF81E0048F28002EE
:102F40001043099B1B7841F823000998007851F839
:102F5000200048F6BF731840ADF81C00BDF81C00F7
:102F600080F02000ADF81C00BDF81C001043099A49
:102F7000127841F82200FFE7DBE10998807A002807
:102F800040F09E80FFE70998C08845F65041C4F2A2
:102F900000010968099A127801EBC20240F280012F
:102FA000C2F20001096801EB4201886009980178CA
:102FB00045F60040C4F2000050F82100800BC00725
:102FC00098B1FFE70998007845F60041C4F2000186
:102FD00051F820004CF2800210434CF68F721040E2
:102FE000099A127841F82200FFE745F65040C4F2F2
:102FF000000000680999097800EBC10140F28000E7
:10300000C2F20000006800EB41000C300690099805
:1030100000893F281ADBFFE7099800894009ADF8CD
:1030200016000998007AC00630B9FFE7BDF816000F
:103030000138ADF81600FFE7BDF816104FF4004058
:1030400040EA812080B20699086016E0099800895C
:103050004008ADF816000998007AC00730B9FFE7BC
:10306000BDF816000130ADF81600FFE7BDF81600F8
:10307000800280B206990860FFE70998007845F65B
:103080000041C4F2000151F820004BF68F7210404D
:10309000ADF81400BDF8140080F48050ADF81400B1
:1030A000BDF8140080F40050ADF81400BDF8140011
:1030B00048F280021043099A127841F8220037E161
:1030C0000998007845F60041C4F2000151F820004B
:1030D00048F28012104348F68F721040099A127815
:1030E00041F822000998828845F65041C4F2000157
:1030F0000868099B1B7800EBC30C40F28000C2F209
:103100000000036843F81C20099AD2880B68DDF898
:1031100024C09CF800C003EBCC0C036803EB4C0309
:103120009A600968099A127801EBC201006800EB05
:10313000410004300490099800893F281ADBFFE71A
:10314000099800894009ADF80E000998007AC00678
:1031500030B9FFE7BDF80E000138ADF80E00FFE70B
:10316000BDF80E104FF4004040EA812080B204996F
:10317000086016E0099800894008ADF80E0009982B
:10318000007AC00730B9FFE7BDF80E000130ADF896
:103190000E00FFE7BDF80E00800280B204990860BF
:1031A000FFE745F65040C4F200000068099909782D
:1031B00000EBC10140F28000C2F20000006800EBA9
:1031C00041000C300290099800893F281ADBFFE784
:1031D000099800894009ADF806000998007AC006F0
:1031E00030B9FFE7BDF806000138ADF80600FFE78B
:1031F000BDF806104FF4004040EA812080B20299E9
:10320000086016E0099800894008ADF806000998A2
:10321000007AC00730B9FFE7BDF806000130ADF80D
:103220000600FFE7BDF80600800280B20299086040
:10323000FFE70998017845F60040C4F2000050F815
:1032400021008009C00798B1FFE70998007845F68A
:103250000041C4F2000151F8200048F2C0021043BE
:1032600048F6CF721040099A127841F82200FFE721
:103270000998017845F60040C4F2000050F821009A
:10328000800BC00798B1FFE70998007845F6004128
:10329000C4F2000151F820004CF2800210434CF6B9
:1032A0008F721040099A127841F82200FFE70998BE
:1032B000007845F60041C4F2000151F8200048F2C0
:1032C000C002104348F6CF721040099A127841F8B4
:1032D00022000998007851F820004BF68F721040B8
:1032E000ADF80400BDF8040080F48050ADF804008F
:1032F000BDF8040080F40050ADF80400BDF80400EF
:1033000048F280021043099B1B7841F8230009987A
:10331000007851F8200048F6BF731840ADF802005D
:10332000BDF802001043099A127841F82200FFE725
:10333000FFE70BB080BD000081B000900099086CE1
:1033400020F0080008640099086C20F0040008646C
:1033500001B0704782B00190ADF80210BDF80200D4
:10336000C0430199486402B07047000082B00190E8
:10337000ADF802108DF801209DF80100012807D159
:10338000FFE7BDF802200199086C1043086406E0CD
:10339000BDF802200199086C90430864FFE702B071
:1033A0007047000086B00590ADF81210ADF81020FF
:1033B000BDF8121040F28000C2F20000006800EB7D
:1033C00041000390BDF810000130400802900598BC
:1033D000009000200190FFE701980299884211D2E5
:1033E000FFE70398811C03910088009908800398E7
:1033F00002300390009802300090FFE701980130FE
:103400000190E9E706B0704782B001908DF8031093
:103410009DF803200199C86C62F30600C864019905
:10342000C86C40F08000C86402B0704787B0069056
:103430008DF817100492ADF80E300698029002989D
:103440004068406A01909DF81700014600912028CD
:1034500004D0FFE70098212814D036E004980068D3
:103460000199486504980079019981F858000498F9
:103470004079019981F8590004988079019981F87F
:103480005A0023E00198406D049908700198406D3E
:10349000000A049948700198B0F8560004998870A1
:1034A000019890F857000499C870019890F8580056
:1034B00004990871019890F859000499487101988D
:1034C00090F85A000499887100E0FFE707B0704750
:1034D00080B586B005900491ADF80E2001208DF8DE
:1034E0000D000598029002984068406A019001988A
:1034F00090F8520060B1FFE70199002081F8520076
:103500000298049ABDF80E30812100F0CBFD03E053
:1035100000208DF80D00FFE79DF80D0006B080BD7E
:1035200086B00590ADF81210ADF81020BDF812105D
:1035300040F28000C2F20000006800EB41000390FE
:10354000BDF810000130400802900598009000205E
:103550000190FFE701980299884211D2FFE7009895
:10356000008803998A1C0392088003980230039014
:10357000009802300090FFE7019801300190E9E7E0
:1035800006B0704780B584B0039000208DF80B0022
:10359000039800F503700190039890F82402023814
:1035A00001281BD8FFE701984088012815D1FFE7C3
:1035B0000399002081F827020399B1F82A0220F02C
:1035C0000200A1F82A02039841688A6800F5037195
:1035D0009047039800F01AFAFFE703E0039800F021
:1035E00025FAFFE79DF80B0004B080BD84B003907E
:1035F0008DF80B109DF80B00000600282CD5FFE776
:1036000003989DF80B1001F07F0100EB41100C3086
:1036100001900198007845F60041C4F2000151F88C
:10362000200048F6BF721040ADF80200BDF802005D
:1036300080F01000ADF80200BDF8020080F020001C
:10364000ADF80200BDF8020048F280021043019A72
:10365000127841F822002CE003989DF80B1001F03D
:103660007F0100EB411000F5867001900198007811
:1036700045F60041C4F2000151F820004BF68F726C
:103680001040ADF80000BDF8000080F48050ADF8A7
:103690000000BDF8000080F40050ADF80000BDF857
:1036A000000048F280021043019A127841F822008B
:1036B000FFE701990020C87204B0704780B582B05E
:1036C000019001980068FFF7A1F902B080BD0000E9
:1036D00080B588B007908DF81B1007989DF81B10D7
:1036E00001F07F0100EB41100C3005909DF81B00AC
:1036F000002867D1FFE7079890F82002022860D1E0
:10370000FFE70599488B098988421FDDFFE7059986
:103710000A89488B801A488307980390059948695D
:103720000490488B0989884204DAFFE70598408BAA
:10373000029003E0059800890290FFE7049A03983D
:1037400002998BB2002100F0ADFC39E00599088B9D
:10375000098988421FD1FFE70599888B098988422A
:1037600019DBFFE70598808B0799B1F82212884290
:1037700011DAFFE7059800230193038307981946A0
:103780001A4600F08FFC019B07989DF81B101A4603
:1037900000F02EFC13E007984068C06858B1FFE7BE
:1037A000079890F82402032805D1FFE7079841689D
:1037B000C9688847FFE7079800F0FAF8FFE7FFE7D6
:1037C000FFE712E007984068406968B1FFE7079893
:1037D00090F82402032807D1FFE7079841684A6957
:1037E0009DF81B109047FFE7FFE708B080BD000081
:1037F00080B586B084460898CDF814C00491039231
:1038000002938DF80700039805994860029805997E
:1038100088600498059908600599012081F82402C0
:10382000059800F0F9FA05980068FFF7FDF806B072
:1038300080BD000080B588B007908DF81B100798F8
:103840009DF81B1001F07F0100EB411000F5867020
:1038500005909DF81B0000283FD1FFE7079890F8DE
:103860002002032838D1FFE70599488B098988424F
:1038700023DDFFE705990A89488B801A488307985A
:1038800002909DF81B000390059948690490488BAD
:103890000989884204DAFFE70598408B019003E02C
:1038A000059800890190FFE7049A02980399019B0B
:1038B000C9B29BB200F09CFB0DE00798406800691C
:1038C00028B1FFE70798416809698847FFE707982B
:1038D00000F09CF8FFE7FFE712E007984068806976
:1038E00068B1FFE7079890F82402032807D1FFE7A3
:1038F000079841688A699DF81B109047FFE7FFE72A
:1039000008B080BD80B584B003908DF80B1003998A
:1039100001F5037001F5057101F0B4F90399012077
:1039200081F820020399B1F81202A1F8220203984B
:1039300090F80C0200F01F000146019140B1FFE732
:103940000198012808D0FFE70198022808D00BE071
:10395000039800F079F808E0039800F05FFF04E0B6
:10396000039800F0C5F800E0FFE704B080BD000058
:1039700080B584B003900291ADF80620039800F55D
:1039800086700090BDF8060000998883BDF8060097
:10399000009948830399032081F820020398029A32
:1039A000BDF80630002100F023FB04B080BD00000C
:1039B00080B582B001900199052081F8200201981C
:1039C000002319461A4600F013FB02B080BD000028
:1039D00080B584B003900291ADF8062003980C30B6
:1039E0000090BDF8060000998883BDF80600009994
:1039F00048830399022081F820020398029ABDF8B7
:103A00000630002100F04EFB04B080BD80B582B0CE
:103A100001900199042081F82002019800231946A1
:103A20001A4600F03FFB02B080BD000080B582B0B6
:103A300001900198002101F0C9F80198802101F05E
:103A4000C5F802B080BD000080B586B004900020AB
:103A50008DF80F00049800F503700290029800782A
:103A600010F0600F0BD0FFE7049841688A6800F5FA
:103A7000037190479DF80F008DF8170033E004980C
:103A800090F80D0201460191092823D80199DFE839
:103A900001F00509210D21111521191D049800F0CF
:103AA00057FE1BE00498FFF76DFD17E0049801F046
:103AB00067F813E0049800F08DFF0FE0049800F021
:103AC0006FFD0BE0049800F031FD07E0049800F072
:103AD000C3FF03E00498FFF7A9FFFFE79DF80F007D
:103AE0008DF81700FFE79DF8170006B080BD0000B5
:103AF00080B58AB0089000208DF81F00089800F566
:103B000003700690069880888DF817000698007854
:103B100010F0600F0BD0FFE7089841688A6800F545
:103B2000037190479DF81F008DF8270001E106986A
:103B300040780146039148B1FFE70398012875D00A
:103B4000FFE70398032800F0AC80E9E0089890F8BC
:103B5000240201460291022804D0FFE702980328BC
:103B600030D05EE09DF81700400630B1FFE70898BE
:103B70009DF8171001F02AF8FFE79DF817000006DE
:103B800000280AD5FFE708989DF8171001F07F017B
:103B900000EB41100C3004900AE008989DF81710D3
:103BA00001F07F0100EB411000F586700490FFE703
:103BB000049900208881089804990C310222FFF7AB
:103BC00007FF32E09DF81700000600280AD5FFE73E
:103BD00008989DF8171001F07F0100EB41100C30A0
:103BE00004900AE008989DF8171001F07F0100EB9F
:103BF000411000F586700490FFE70498C07A012810
:103C000004D1FFE704990120888103E00499002092
:103C10008881FFE7089804990C310222FFF7D8FE4B
:103C200003E00898FFF702FFFFE77DE0089890F8AF
:103C3000240201460191022804D0FFE701980328DD
:103C400010D029E09DF8170058B1FFE79DF8170044
:103C5000802806D0FFE708989DF8171000F0B6FFFF
:103C6000FFE71DE006984088A8B9FFE79DF8170018
:103C7000400660B1FFE708989DF81710FFF7B6FC03
:103C8000089841688A6800F503719047FFE7089833
:103C9000FFF7BCFEFFE703E00898FFF7C7FEFFE76A
:103CA00042E0089890F8240201460091022804D0CE
:103CB000FFE70098032810D02DE09DF8170058B1B9
:103CC000FFE79DF81700802806D0FFE708989DF8C9
:103CD000171000F07BFFFFE721E00698408880B9CD
:103CE000FFE79DF8170058B1FFE79DF817008028FF
:103CF00006D0FFE708989DF8171000F067FFFFE770
:103D0000FFE7089841688A6800F5037190470898B2
:103D1000FFF77CFE03E00898FFF788FEFFE703E06B
:103D20000898FFF783FEFFE79DF81F008DF8270036
:103D3000FFE79DF827000AB080BD000080B582B083
:103D4000019001980068FEF787FE02B080BD000078
:103D500084B003908DF80B1001929DF80B000006C3
:103D600000280BD4FFE703989DF80B1001F07F01AA
:103D700000EB411000F58670009009E003989DF873
:103D80000B1001F07F0100EB41100C300090FFE7B9
:103D90000098807A70B9FFE700988078012804D1F4
:103DA000FFE701980099888003E001980099C88096
:103DB000FFE707E0019800998880BDF806000099A8
:103DC000C880FFE704B0704780B584B003908DF8D9
:103DD0000B109DF80B00000600280AD5FFE703989A
:103DE0009DF80B1001F07F0100EB41100C300190A9
:103DF0000AE003989DF80B1001F07F0100EB4110E1
:103E000000F586700190FFE7039800680199FEF7BE
:103E100031FE04B080BD000082B0019000208DF81A
:103E20000300FFE79DF80300072839DCFFE79DF852
:103E30000300019901EB401108739DF803000199FB
:103E400001EB4011487301989DF8031000EB4111FC
:103E50000120887301989DF8031000EB41110020A8
:103E6000888201999DF8032001EB421108620199B3
:103E70009DF8032001EB4211488301999DF803202E
:103E800001EB4211088201999DF8032001EB4211D8
:103E90004882FFE79DF8030001308DF80300C1E779
:103EA00000208DF80300FFE79DF80300072840DCA1
:103EB000FFE79DF80300019901EB401181F80C0127
:103EC0009DF80300019901EB401181F80D01019863
:103ED0009DF8031000EB4111002081F80E010199BB
:103EE0009DF8032001EB4211A1F8140101999DF8FE
:103EF000032001EB4211C1F8200101999DF8032034
:103F000001EB4211A1F81A0101999DF8032001EB80
:103F10004211A1F8120101999DF8032001EB421111
:103F2000A1F81001FFE79DF8030001308DF80300B0
:103F3000BAE702B07047000080B584B003900398E0
:103F40000068029000208DF80700FFE70298406C9F
:103F50000090000400280BD5FFE7009800F00F0048
:103F60008DF8070003989DF8071000F07DF9EDE744
:103F700004B080BD80B584B003908DF80B108DF82F
:103F80000A20ADF808300398006801909DF80B00F6
:103F9000000600280ED4FFE703989DF80B1001F0EF
:103FA0007F0100EB411000F5867000900099002021
:103FB00088700CE003989DF80B1001F07F0100EB76
:103FC00041100C300090009901208870FFE7BDF887
:103FD0000800013020F00100009908819DF80A00D6
:103FE0000099C87001980099FEF76EFE04B080BD7C
:103FF00087B006908DF817100492ADF80E30069831
:104000009DF8171001F07F0100EB411000F586705C
:104010000290002001900499029A5161BDF80E109F
:10402000029AD181029908820299C8890989884235
:1040300009DDFFE7029800890190019A0299C88979
:10404000801AC88106E0BDF80E0001900299002098
:10405000C881FFE79DF8170000F07F0045F600419A
:10406000C4F2000151F820004BF68F721040ADF8F9
:104070000200BDF8020080F48050ADF80200BDF8E7
:10408000020080F40050ADF80200BDF8020048F2D2
:10409000800210439DF8172002F07F0241F82200B1
:1040A00007B0704780B588B007908DF81B10059257
:1040B000ADF8123007989DF81B1001F07F0100EB5E
:1040C00041100C3003900020ADF80A0007990968F0
:1040D00001910599039A5161BDF81210039AD1819B
:1040E000039908820399C889098988420BDDFFE793
:1040F00003980089ADF80A00BDF80A200399C88921
:10410000801AC88107E0BDF81200ADF80A000399D3
:104110000020C881FFE7BDF80A00039908830398CF
:10412000807AE8B9FFE7039948698988BDF80A20D1
:10413000FFF7F6F9BDF80A0045F65041C4F2000158
:1041400009689DF81B2002F07F0201EBC20240F2D9
:104150008001C2F20001096801EB420148605BE0A6
:1041600001989DF81B1001F07F0150F82100800993
:10417000C007E8B1FFE7BDF80A0045F65041C4F2B8
:10418000000109689DF81B2002F07F0201EBC202CA
:1041900040F28001C2F20001096801EB4201C860EF
:1041A00003994869C988BDF80A20FFF7B9F91CE0EE
:1041B000BDF80A0045F65041C4F2000109689DF8B7
:1041C0001B2002F07F0201EBC20240F28001C2F22A
:1041D0000001096801EB4201486003994869898838
:1041E000BDF80A20FFF79CF9FFE79DF81B0000F0DF
:1041F0007F0045F60041C4F2000151F820004CF266
:10420000800210434CF68F7210409DF81B2002F084
:104210007F0241F82200FFE79DF81B0000F07F00BD
:1042200045F60041C4F2000151F8200048F6BF7283
:104230001040ADF80200BDF8020080F01000ADF8AB
:104240000200BDF8020080F02000ADF80200BDF8C9
:10425000020048F2800210439DF81B2002F07F020A
:1042600041F8220008B080BD80B586B005908DF879
:10427000131005980068039003989DF8131050F8E8
:10428000210001909DF80400000600285DD5FFE79D
:1042900005989DF8131000EB41100C3002909DF82A
:1042A000132045F60041C4F2000151F8220048F6FF
:1042B0000F73184041F8220045F65040C4F2000048
:1042C00000689DF8131000EBC10140F28000C2F2BB
:1042D0000000006800EB410040686FF39F200299E6
:1042E000088202990A8A4869104448610298C08984
:1042F00020B1FFE79DF8130030B9FFE705989DF85E
:104300001310FFF7E5F908E005989DF81310029BDC
:104310005A69DB89FFF7C6FEFFE7059890F824028B
:10432000022811D1FFE7059890F8260201280BDB3F
:10433000FFE70599086891F82612FFF765F80599D7
:10434000002081F82602FFE7EEE005989DF81310A3
:1043500000EB411000F5867002909DF80500000703
:1043600000282CD5FFE745F65040C4F20000006855
:104370009DF8131000EBC10140F28000C2F2000072
:10438000006800EB4100C0686FF39F20029908822B
:10439000059800F50570029AD188128AFFF702F895
:1043A00045F60041C4F20001086840F68F721040E3
:1043B000086005989DF81310FFF7A4FAB3E09DF884
:1043C00005000006002840F1AD80FFE79DF81320AE
:1043D00045F60041C4F2000151F8220040F68F7307
:1043E000184041F822000298807AE8B9FFE745F6C4
:1043F0005040C4F2000000689DF8131000EBC101AA
:1044000040F28000C2F20000006800EB4100C0688A
:104410006FF39F20ADF8020002994869C988BDF882
:104420000220FEF7BFFF52E09DF80500400600287D
:104430001DD5FFE745F65040C4F2000000689DF826
:10444000131000EBC10140F28000C2F200000068CE
:1044500000EB410040686FF39F20ADF80200029925
:1044600048698988BDF80220FEF79CFF1CE045F6EC
:104470005040C4F2000000689DF8131000EBC10129
:1044800040F28000C2F20000006800EB4100C0680A
:104490006FF39F20ADF8020002994869C988BDF802
:1044A0000220FEF77FFFFFE79DF8130045F600416D
:1044B000C4F2000151F8200048F2C002104348F64F
:1044C000CF7210409DF8132041F82200FFE7BDF89D
:1044D00002200299088A10440882BDF8022002993D
:1044E0004869104448610298C08958B1FFE7BDF897
:1044F000020002990989884204DBFFE79DF8130056
:1045000030B9FFE705989DF81310FFF793F908E01D
:1045100005989DF81310029B5A69DB89FFF768FD27
:10452000FFE7FFE7FFE7FFE706B080BD80B584B097
:10453000039000208DF80B00039800F503700190A4
:104540000198C088012804D0FFE70398FFF76EFAAE
:1045500022E0039890F8240201460091022804D03A
:10456000FFE7009803280BD011E00399002081F8A1
:104570002802039800F50A710122FFF729FA0AE0E0
:10458000039800F229210122FFF722FA03E00398A1
:10459000FFF74CFAFFE7FFE79DF80B0004B080BD82
:1045A00080B588B0069000208DF81700ADF8140093
:1045B0000490069890F80F028DF80F009DF80F00F8
:1045C000013801460291062800F276800299DFE860
:1045D00001F0040A107373676B0006988068006826
:1045E0008047049070E00698806880688047049057
:1045F0006AE0069890F80E028DF80E009DF80E0005
:1046000001460191C0B1FFE7019801281AD0FFE7E8
:10461000019802281CD0FFE7019803281ED0FFE76D
:104620000198042820D0FFE70198052822D0FFE751
:104630000198EE2824D027E006988068006980471A
:1046400004902CE00698806840698047049026E03A
:104650000698806880698047049020E0069880680A
:10466000C069804704901AE006988068406A8047D5
:10467000049014E006988068006A804704900EE079
:104680000698FFF7D3F90AE0069841688A6800F5B2
:10469000037190479DF817008DF81F0042E013E06A
:1046A0000698FFF7C3F90FE00698FFF7BFF99DF8EA
:1046B00017008DF81F0035E00698FFF7B7F99DF851
:1046C00017008DF81F002DE0049830B3FFE7049821
:1046D000008808B3FFE70698B0F81202E0B1FFE7E0
:1046E000049800880699B1F81212884204DAFFE7AC
:1046F00004980088009004E00698B0F81202009038
:10470000FFE70098ADF81400069804994968BDF8D1
:104710001420FFF75DF9FFE7FFE79DF817008DF81C
:104720001F00FFE79DF81F0008B080BD83B0029016
:104730008DF8071002989DF8071001F07F0100EB3B
:10474000411000F5867000900098008A03B0704711
:1047500080B582B0019000208DF80300019890F898
:1047600024020238012814D8FFE7019890F82702A4
:1047700040B1FFE70199B1F82A0240F00200A1F828
:104780002A02FFE7019800F22A210222FFF720F90E
:1047900003E00198FFF74AF9FFE79DF8030002B034
:1047A00080BD000083B0029001918DF803200020AD
:1047B0008DF80200FFE79DF802009DF80310884283
:1047C00029DAFFE70298000F092809D8FFE70298C5
:1047D000000F303001999DF8022001F8120009E025
:1047E0000299372000EB117001999DF8022001F821
:1047F0001200FFE702980001029001989DF8021054
:1048000000EB410100204870FFE79DF802000130F5
:104810008DF80200CFE703B07047000080B584B088
:10482000039000208DF80B00039800F503700190B1
:10483000039890F824020138022815D8FFE703985E
:1048400041688A6800F5037190478DF80B00019864
:10485000C08840B9FFE79DF80B0020B9FFE7039837
:10486000FFF7D4F8FFE703E00398FFF7DFF8FFE76F
:104870009DF80B0004B080BD80B584B00390039810
:10488000006802900298406C01900298006C0090C1
:104890009DF805000006002804D5FFE70398FFF700
:1048A0004BFBFFE79DF805004007002809D5FFE70F
:1048B00002984FF48061FEF74DFD039800F052F826
:1048C000FFE79DF80500800700280FD5FFE79DF85A
:1048D00001008007002809D5FFE702984FF4007116
:1048E000FEF738FD039800F0EFF9FFE79DF80500AB
:1048F000C00758B1FFE79DF80100C00730B1FFE7DE
:1049000002984FF48071FEF725FDFFE79DF8050042
:10491000000700280FD5FFE79DF8010000070028D9
:1049200009D5FFE702984FF40061FEF713FD0398E5
:1049300000F0DAF9FFE79DF80500C00600280FD562
:10494000FFE79DF80100C006002809D5FFE703989E
:1049500000F022FA02984FF48051FEF7FBFCFFE7CB
:1049600004B080BD80B584B00390FEF747F803988B
:10497000FFF752FA03988021009140220192FFF73D
:10498000E7F9009A039800210291FFF7E1F9019BF2
:10499000029A03981146FFF7EDFA0099019B029ADB
:1049A0000398FFF7E7FA029903980068FEF72CFDD9
:1049B0000399012081F8240203984068006A30B10D
:1049C000FFE7039841680A6A01219047FFE704B0B6
:1049D00080BD000080B584B0039000208DF80B00EE
:1049E000039800F5037001900198808860BBFFE791
:1049F0000198C08840BBFFE70198807800F07F00F5
:104A00008DF80300039890F82402032804D1FFE7EF
:104A10000398FFF70BF816E09DF80300039981F85F
:104A200026029DF8030028B1FFE70399022081F8D0
:104A3000240204E00399012081F82402FFE703988F
:104A4000FEF7E4FFFFE703E00398FEF7EFFFFFE761
:104A50009DF80B0004B080BD80B584B003900020A9
:104A60008DF80B00039800F5037001900198807891
:104A700041F24871C2F20001087001988088002854
:104A800076D1FFE70198C088002871D1FFE703982D
:104A900090F8240201460091022804D0FFE7009814
:104AA000032820D05FE041F24870C2F20000007895
:104AB000A0B1FFE741F24870C2F20000007803990C
:104AC00081F829020399032081F8240203984168A0
:104AD000096888470398FEF799FF03E00398FEF7FB
:104AE00095FFFFE743E041F24870C2F20000007812
:104AF000A0B9FFE70399022081F8240241F248702F
:104B0000C2F200000078039981F8290203984168F5
:104B1000496888470398FEF779FF23E041F248701F
:104B2000C2F200000078039991F82912884214D14A
:104B3000FFE7039841684968884741F24870C2F22C
:104B400000000078039981F82902039841680968F8
:104B500088470398FEF75AFF03E00398FEF756FFD5
:104B6000FFE7FFE703E00398FEF760FFFFE703E0DE
:104B70000398FEF75BFFFFE79DF80B0004B080BDD4
:104B800080B584B0039000208DF80B00039800F5E9
:104B9000037001900198408801280ED1FFE7039926
:104BA000012081F82702039841688A6800F50371A3
:104BB00090470398FEF72AFF03E00398FEF736FFBD
:104BC000FFE79DF80B0004B080BD000084B00390A7
:104BD0008DF80B109DF80B000006002826D5FFE786
:104BE00003989DF80B1001F07F0100EB41100C3091
:104BF00001900198007845F60041C4F2000151F897
:104C0000200048F6BF721040ADF80200BDF8020067
:104C100080F01000ADF80200BDF8020048F28002FA
:104C20001043019A127841F8220026E003989DF87B
:104C30000B1001F07F0100EB411000F58670019030
:104C40000198007845F60041C4F2000151F82000B7
:104C50004BF68F721040ADF80000BDF8000080F4F4
:104C60008050ADF80000BDF8000048F2800210430B
:104C7000019A127841F82200FFE701990120C872D9
:104C800004B0704782B001900091009800780199BB
:104C90000870009840780199487000998878C97820
:104CA00040EA01200199488000990879497940EA51
:104CB00001200199888000998879C97940EA01200A
:104CC0000199C88002B0704780B582B00190019808
:104CD0004068C06928B1FFE701984168C969884701
:104CE000FFE702B080BD000080B582B0019001995D
:104CF00091F8240281F825020199042081F8240208
:104D00000198FFF71BF801984068006A30B1FFE78F
:104D1000019841680A6A02219047FFE702B080BD0E
:104D200084B0039002910020ADF806000220ADF897
:104D3000040003980090FFE700980078C8B1FFE7EF
:104D4000BDF806000130ADF806000098411C009146
:104D500000780299BDF80420531CADF80430885443
:104D60000299BDF80420501CADF8040000208854BE
:104D7000E2E7BDF80610022000EB4100ADF80600A6
:104D80009DF8060002990870029903204870BDF84A
:104D9000060004B07047000080B582B00190019811
:104DA0000068FEF7C9FA019991F8250281F82402FA
:104DB00001984068006A30B1FFE7019841680A6ACB
:104DC00003219047FFE702B080BD00004FEA115376
:104DD000A3F58063D3F11E03A8BFD3F1200C08DB39
:104DE0004FF0004242EAC12252EA505232FA03F036
:104DF000704709420BD4102BC4BF0020704703F545
:104E0000787CBCF1FF3F05D04FF0FF3070474FF08A
:104E10000000704770B500F0C3F800BF49922480CD
:104E200000207047F0E7B0FA80F310FA03F10AD0DF
:104E3000C3F11D0303F580634FEA03524FEA41506B
:104E400002EBD12170474FF00000704770B5DFF8DA
:104E500048C11CEA111E1EBF1CEA13159EEA0C0F66
:104E600095EA0C0F00F06F8081EA03044EEAD47ECD
:104E7000AE4421EA4C1123EA4C1341F4801143F46F
:104E80008013AEF17F7EA1FB024CA0FB03653619B7
:104E900055EB0C05A1FB034C4CF10003A0FB021CDD
:104EA00016EB0C06654153F10003094218BF46F0AA
:104EB000010613F4007F0BD14FEA03314FEA0530AE
:104EC00041EA155140EA165034036FF003020AE03C
:104ED0004FEAC3214FEAC52041EA555140EA5650F6
:104EE000F4026FF0020202EB2E4201EB025585EA5A
:104EF000CE710AD05FEA440C18BF24F0004450F190
:104F0000000041F1000120EAD47040F2FE7C6245CD
:104F100000D270BDA84214BF4FF080444FF040440F
:104F2000002E08BF0024BEF1806FA8BFA1F1C041D0
:104F3000BDE8704080F2828001F1C04101F0004183
:104F40004FF0000070470CEA13159EEA0C0F18BFD3
:104F500095EA0C0F06D081EA030E4FF000000EF028
:104F6000004170BD00F01CF88900013E00F007B858
:104F700000F009B84FEA430C5FEA5C5C08D081EAB4
:104F8000030100F05BB84FEA410C5FEA5C5CF6D1CC
:104F900002494FF0000070470000FF070000F87F53
:104FA0000EF1020E2EF0030E5EF8046B364205D4AD
:104FB000012A43EB030515F5001F12D8012841EB28
:104FC000010C1CF5001F0CD80ED14FEAD17C0CEB64
:104FD0004C0C0CF1020C15F5001F08BF4CEBD37CF8
:104FE00004E04FF0080C01E04FEAD37C0CEB4C05D9
:104FF00026FA05F606F00706B6F1040C06D20EEB0B
:10500000860CBDE870404CF0010C6047DFE80CF006
:10501000090B02024FF00041A1F500214FF0000002
:1050200070BD19461046012851EB010418BFD4F594
:10503000001484BF002001F0004170BD0808A0F5F5
:1050400000114FEA31017047F1EE100A4FF6FF717F
:10505000C0F2C03120EA010040F04070E1EE100AD9
:10506000704741543332205669727475616C204325
:105070006F6D20506F7274202000566972747561D4
:105080006C20436F6D506F727420496E7465726648
:10509000616365005669727475616C20436F6D5071
:1050A0006F727420436F6E66696700417274657237
:1050B0007900000000000000000001020304060760
:1050C00008090000E850000800000020F800000077
:1050D000C0010008E0510008F8000020601C00003A
:1050E000DC01000800000000A5180008B117000846
:1050F0006519000829180008E11700087918000848
:1051000029190008511A00083D18000888010020DC
:10511000E924000895250008DD2400086125000821
:105120002525000831250008652500089925000877
:10513000F5240008AD24000843000000840000208E
:1051400012000000C8000020040309041A03000034
:10515000000000000000000000000000000000004F
:105160000000000000004000006000400902430011
:10517000020100C0320904000001020201000524FE
:105180000010010524010001042402020524060088
:1051900001070582030800FF09040100020A00005C
:1051A00000070581024000000705010240000000E1
:1051B00012010002020000403C2E40570002010292
:1051C00003010000040000006000002000C2010094
:1051D000000008001A0000006400002000127A009D
:040000050800018569
:00000001FF
